:10000000E03F08209D110000D9290000791100006F
:10001000D9290000D9290000D929000000000000DA
:10002000000000000000000000000000D9290000CE
:10003000D929000000000000D9290000D9290000BA
:10004000D9290000D9290000D9290000D9290000A8
:10005000D9290000D9290000D9290000D929000098
:10006000D9290000D9290000D9290000D929000088
:10007000D9290000D9290000D9290000D929000078
:10008000D9290000D9290000D9290000D929000068
:10009000D9290000D9290000D9290000D929000058
:1000A000D9290000D9290000D9290000D929000048
:1000B000D9290000D9290000D9290000D929000038
:1000C000D9290000D9290000D9290000AC820000FC
:1000D00000C007202801000028C10720B00200004E
:1000E00010B5054C237833B9044B13B10448AFF372
:1000F00000800123237010BD28C1072000000000EC
:10010000F481000008B5034B1BB103490348AFF36A
:10011000008008BD000000002CC10720F481000011
:1001200080B483B000AF7860044A7B681A607B6853
:1001300018460C37BD4680BC704700BFAC6A000053
:1001400080B582B000AF78600B46FB701346BB7081
:100150007B681846FFF7E4FF064A7B681A607B68F5
:10016000BA781A717B68FA785A717B681846083732
:10017000BD4680BD886A000080B483B000AF78605F
:100180000B46FB707B685B79DBB2012B23D0022B23
:1001900040D0002B00D05CE0FB78002B0DD17B68B9
:1001A0001B79DBB21A4601239340DA432B4B1B68C1
:1001B00011462A4A0B4013604BE07B681B79DBB287
:1001C0001A46012303FA02F2244B1B681146234A04
:1001D0000B4313603DE0FB78002B0DD17B681B794E
:1001E000DBB21A4601239340DA431D4B1B681146CC
:1001F0001B4A0B4013602CE07B681B79DBB21A466C
:10020000012303FA02F2164B1B681146144A0B43F2
:1002100013601EE0FB78002B0DD17B681B79DBB2ED
:100220001A4601239340DA430E4B1B6811460D4AD0
:100230000B4013600CE07B681B79DBB21A4601238C
:1002400003FA02F2074B1B681146064A0B43136080
:1002500000BF00BF0C37BD4680BC704700C00920FE
:1002600020C0092040C0092080B483B000AF78606E
:100270000B46FB707B685B79DBB2012B23D0022B32
:1002800040D0002B00D05CE0FB78002B0DD17B68C8
:100290001B79DBB21A4601239340DA432B4B5B698F
:1002A00011462A4A0B4053614BE07B681B79DBB255
:1002B0001A46012303FA02F2244B5B691146234AD2
:1002C0000B4353613DE0FB78002B0DD17B681B791C
:1002D000DBB21A4601239340DA431D4B5B6911469A
:1002E0001B4A0B4053612CE07B681B79DBB21A463A
:1002F000012303FA02F2164B5B691146144A0B43C1
:1003000053611EE0FB78002B0DD17B681B79DBB2BB
:100310001A4601239340DA430E4B5B6911460D4A9E
:100320000B4053610CE07B681B79DBB21A4601235A
:1003300003FA02F2074B5B691146064A0B4353610D
:1003400000BF00BF0C37BD4680BC704700C009200D
:1003500020C0092040C0092080B483B000AF78607D
:100360007B685B79DBB2012B12D0022B1ED0002BF5
:1003700000D029E07B681B79DBB21A46012303FA1F
:1003800002F2144B5B691146124A4B4053611BE069
:100390007B681B79DBB21A46012303FA02F20E4B8B
:1003A0005B6911460C4A4B4053610DE07B681B7939
:1003B000DBB21A46012303FA02F2084B5B691146CD
:1003C000064A4B40536100BF00BF0C37BD4680BC9E
:1003D000704700BF00C0092020C0092040C009208C
:1003E00080B483B000AF78607B685B79DBB2012BAF
:1003F00012D0022B1FD0002B2CD1194B5B697A68CD
:100400001279D2B2114601228A401340002B14BF48
:1004100001230023DBB21EE0124B5B697A6812797C
:10042000D2B2114601228A401340002B14BF01238F
:100430000023DBB20FE00C4B5B697A681279D2B211
:10044000114601228A401340002B14BF01230023D0
:10045000DBB200E0002318460C37BD4680BC704775
:1004600000C0092020C0092040C0092080B483B00A
:1004700000AF786000BF18460C37BD4680BC70479F
:1004800080B487B000AFF860B9601346FB71BB68F9
:100490007B61FB79FB7400BF1C37BD4680BC704795
:1004A00080B483B000AF786000BF0C37BD4680BC1D
:1004B0007047FFFF80B483B000AF786039607B681D
:1004C000012B10D13B684FF6FF7293420BD1084BC2
:1004D0001B6803F00103002B05D1054B01221A60B4
:1004E000044A054B1A6000BF0C37BD4680BC7047FC
:1004F00048C1072000C0024044C1072080B500AFBA
:100500004FF6FF710120FFF7D5FF80BD80B483B0A7
:1005100000AF78607B6803F01F0206497B685B09C7
:10052000012000FA02F241F8232000BF0C37BD463B
:1005300080BC704700E100E080B483B000AF786019
:100540007B6803F01F0207497B685B09012000FA02
:1005500002F2203341F8232000BF0C37BD4680BC97
:10056000704700BF00E100E080B483B000AF786066
:1005700039607B68002B0BDA3B68DAB20C497B6888
:1005800003F00F03043B5201D2B20B441A760AE087
:100590003B68DBB2074A796808465B01D9B2131899
:1005A0000A4683F8002300BF0C37BD4680BC704765
:1005B00000ED00E000E100E090B400AF4FF0FF3349
:1005C0006FF0004418462146BD4690BC704790B479
:1005D00082B000AF786039603B6818CB7A68C2E9B6
:1005E00000347B6818460837BD4690BC704790B40D
:1005F00082B000AF786039603B6818CB7A68C2E996
:1006000000347B6818460837BD4690BC7047FFFF32
:1006100080B582B000AF78607B680022034918463D
:1006200000F02EFB78680837BD4680BD50C107201A
:1006300080B483B000AF7860002318460C37BD4605
:1006400080BC704780B500AF0020FFF7F1FF034684
:10065000184680BD90B593B000AFC7E90201D7E955
:100660000234C7E9063487F8242007F13803184616
:1006700000F029FB07F1380207F11803114618466C
:1006800000F035FB0346002B04D0D7E90634C7E958
:10069000043411E0194B1B6807F1300210469847EB
:1006A0003B4607F1180207F13001184600F044FB01
:1006B000D7E90034C7E9043401237B640F4B1B687E
:1006C00007F128021046984707F1100207F12803A6
:1006D0001146184600F05BFB0346002B09D007F1DA
:1006E00024031846FFF7A4FF0346002BE6D000239F
:1006F0007B647B6C18464C37BD4690BD00C007201C
:1007000080B582B000AFC7E90001D7E90001FFF76B
:10071000A1FF00BF0837BD4680BD80B400AF00BF59
:10072000BD4680BC7047FFFF80B582B002AF094B69
:100730001B6800931D23084A0849094801F08EFFF1
:10074000044B1B68103B1846FFF7F6FE00BFBD4682
:1007500080BD00BF04C00720DC6B0000D86A000029
:10076000E86A000080B483B000AF78604023184688
:100770000C37BD4680BC704780B584B000AF786050
:100780007B6818464FF480731A46002105F03DFF40
:100790000023FB60FB680F2B08D87B68FA681149BF
:1007A00043F82210FB680133FB60F3E71023BB60C2
:1007B0007868FFF7D7FF0246BB68934234BF012336
:1007C0000023DBB2002B08D07B68BA68064943F8E7
:1007D0002210BB680133BB60EAE700BF78681037BE
:1007E000BD4680BD1B0700002907000080B483B010
:1007F00000AF78607B68103318460C37BD4680BC6C
:100800007047FFFF80B582B000AF78607868FFF76F
:10081000EDFF03469B00034A134418460837BD46C4
:1008200080BD00BF58C1072084B090B585B000AF2F
:10083000786007F1240080E80E007B6AFB60BC6AE8
:10084000F868FFF7DFFF03461C6097F82C30002B99
:1008500005D0FB68002B02DBF868FFF757FE3B6B07
:10086000002B04DB3B6B1946F868FFF77DFE00BFE9
:100870001437BD46BDE8904004B0704780B582B0E3
:1008800000AF786039603868FFF756FE3868FFF7C8
:10089000B9FF0246024B136000BF0837BD4680BD5A
:1008A0002907000080B582B000AF78607B681846E9
:1008B00000F004F878680837BD4680BD80B582B086
:1008C00000AF78600349786800F006F87868083768
:1008D000BD4680BDD06A000090B482B000AF7860A1
:1008E00039603B6818CB7A68C2E900347B681846E7
:1008F0000837BD4690BC704780B582B000AF7860C5
:1009000039607B683968184600F010F87868083755
:10091000BD4680BD90B482B000AF78607B6818CBD4
:10092000184621460837BD4690BC7047F0B585B0E3
:1009300000AF786039603868FFF7ECFF05460E4677
:100940002B4634464FF000014FF00002620142EAAC
:10095000D36259010B4614465B1B64EB06044FF04F
:1009600000014FF00002A20042EA937299000B4688
:1009700014465B1944EB06044FF000014FF00002EF
:10098000E20042EA5372D9000B461446C7E902342A
:1009900007F1080319467868FFF729FE78681437CD
:1009A000BD46F0BD90B585B000AF7860396007F105
:1009B000080339681846FFF79FFF07F10803184638
:1009C00000F00AF803460C467A68C2E900347B68F6
:1009D00018461437BD4690BD90B482B000AF786021
:1009E0007B6818CB184621460837BD4690BC704737
:1009F00080B582B000AF78607B68184600F004F8DC
:100A000078680837BD4680BD80B582B000AF786099
:100A100003497868FFF7DBFD78680837BD4680BD7D
:100A2000C86A000080B582B000AF786039607B682A
:100A30003968184600F010F878680837BD4680BD60
:100A400090B482B000AF78607B6818CB184621461E
:100A50000837BD4690BC7047F0B585B000AF7860F0
:100A600039603868FFF7ECFF05460E462B463446E2
:100A70004FF000014FF00002620142EAD3625901D7
:100A80000B4614465B1B64EB06044FF000014FF06D
:100A90000002620242EAD35259020B4614465B1925
:100AA00044EB06044FF000014FF00002A20142EABD
:100AB00093629901C91A62EB04024B1942EB0604D6
:100AC000C7E9023407F1080319467868FFF78FFD7C
:100AD00078681437BD46F0BD90B585B000AF78603A
:100AE000396007F1080339681846FFF79BFF07F1E3
:100AF00008031846FFF770FF03460C467A68C2E900
:100B000000347B6818461437BD4690BD90B597B049
:100B100002AF07F11803002200211846FFF710FB6F
:100B200007F1180301211846FFF726FB354800F0AE
:100B30006BFC07F1180300211846FFF795FB3248BC
:100B400000F062FC07F128031846FFF7ABFE07F13F
:100B5000280207F1200311461846FFF723FFD7E9C3
:100B60000801FFF7CDFD294B7B61294B3C1D0FCBC5
:100B700084E80F00274B1B69264A43F001031361E9
:100B8000254800F041FC07F114003B6900933B1D30
:100B90000ECBFFF749FE214800F036FC1D4B1B69C8
:100BA00019461F4801F05AFD1E4B1B689B681846EA
:100BB00005F020FC07F138031846FFF719FF07F18D
:100BC000380207F1300311461846FFF785FFD7E9D1
:100BD0000C01FFF795FD07F118031846FFF7BCFB62
:100BE00007F148031846FFF75DFE07F1480207F1D9
:100BF000400311461846FFF7D5FED7E91001FFF76D
:100C00007FFDCBE7686B0000746B0000D46B0000C5
:100C1000A46B000080800240806B00008C6B0000A1
:100C2000986B0000C4C0072080B582B000AF104BA5
:100C30001B6819460F4801F011FD0D4BDB680C4A8B
:100C400023F00103D3600A4B1B6819460A4801F0E0
:100C500005FD00237B607B68084A934203DC7B68C8
:100C600001337B60F7E700BF0837BD4680BD00BF9A
:100C700080800240B46B0000C06B00003F420F0058
:100C800090B587B000AFF860B9607A60BB6818CBE8
:100C9000591C44F10002B868C0E90012C7E90434E5
:100CA00007F110031946F868FFF7A1FCF8681C3734
:100CB000BD4690BD98B500AFFFF77EFC03460C46DD
:100CC0001846214698BD90B585B000AF7860FFF713
:100CD000F1FF03460C46C7E9023407F10803194641
:100CE0007868FFF784FC78681437BD4690BDF0B58E
:100CF00087B000AF786039607B6818CBC7E90234F1
:100D000007F108031846FFF767FE05460E463B68E5
:100D100018CBC7E9043407F110031846FFF75CFE4F
:100D200003460C46A64206BF9D4201230023DBB2C8
:100D300018461C37BD46F0BDF0B58BB000AFF8606B
:100D4000B9607A60BB6818CBC7E9063407F11803AD
:100D50001846FFF741FE05460E467B6818CBC7E9EB
:100D6000083407F120031846FFF736FE0A4601460D
:100D70004B1942EB0604C7E9043407F11003194686
:100D8000F868FFF734FCF8682C37BD46F0BDF0B5C5
:100D900087B000AF786039607B6818CBC7E9023450
:100DA00007F108031846FFF717FE05460E463B6895
:100DB00018CBC7E9043407F110031846FFF70CFEFF
:100DC00003460C469D4276EB0403B4BF0123002387
:100DD000DBB218461C37BD46F0BDFFFF80B582B0C0
:100DE00000AF786039607B68012B1DD13B684FF6FE
:100DF000FF72934218D10E4B1B6803F00103002BC6
:100E000005D10B4B01221A600A4A0B4B1A600B4B9F
:100E10001B6803F00103002B06D1084B01221A6066
:100E2000074B1846FFF7A8FC00BF0837BD4680BD3A
:100E300048C1072000C0024044C1072058C2072013
:100E400058C1072080B500AF4FF6FF710120FFF7B2
:100E5000C5FF80BD80B586B002AF786039603A6862
:100E600007F10C03009300230021786804F044FC90
:100E7000FB6818461037BD4680BDFFFF80B485B0C3
:100E800000AF7860094BFB607B68002B02D0012B20
:100E900003D005E0064BFB6002E0064BFB6000BFA1
:100EA000FB6818461437BD4680BC70472C6C0000A8
:100EB000346C0000406C000080B584B000AF7860F6
:100EC00039603B68FB600F217868FFF7C3FF03467A
:100ED00023F00103BB60FB681968BB68043B1A463A
:100EE000064801F0BBFBFB681B685A1CFB681A60D4
:100EF000002318461037BD4680BD00BF4C6C000073
:100F000080B584B000AF786039603B68FB600F212A
:100F10007868FFF79FFF034623F00103BB60BB68BF
:100F2000043B1946064801F099FBFB681B685A1CF4
:100F3000FB681A60002318461037BD4680BD00BF0D
:100F40005C6C000080B584B000AF03463960FB7173
:100F50000023FB6007F10C0319461A4804F0C2FF96
:100F60003B68002B05D0FB683A681946164801F02B
:100F700075FBFB79002B20D0144801F06FFB14485F
:100F800001F06CFB0020FFF779FF0346194611487A
:100F900001F064FB07F10C0319460F4804F0A2FFAF
:100FA0003B68002B03D039680C4801F057FB0C4814
:100FB00001F054FB0B4800F027FA00BF1037BD4684
:100FC00080BD00BFB90E0000646C0000706C0000B2
:100FD000A86C0000B46C0000010F0000D06C000091
:100FE000D86C0000E06C000080B487B000AF002334
:100FF0007B617A6913465B0013449B001E4A1344CD
:101000001E4A934233D21C497A6913465B0013444B
:101010009B000B441B68FB6017497A6913465B0011
:1010200013449B000B445B68BB6013497A69134609
:101030005B0013449B000B4408331B687B60002358
:101040003B613A697B689A420DD23B699B00FA6822
:101050001A443B699B00B9680B4412681A603B69EB
:1010600001333B61EDE77B6901337B61C1E700BF81
:101070001C37BD4680BC7047CC000000D800000083
:1010800080B485B000AF0023FB60FB68DB00144A2E
:101090001344144A93421ED2114AFB6852F833306B
:1010A0007B600F4AFB68DB0013445B683B600023F6
:1010B000BB60BA683B689A4209D2BB689B007A68F9
:1010C000134400221A60BB680133BB60F1E7FB6880
:1010D0000133FB60D9E700BF1437BD4680BC7047C1
:1010E000D8000000E000000080B500AFFFF77CFFF3
:1010F000FFF7C6FF05F05AFA00BF80BD80B58CB07F
:1011000002AF78607B681B687B627B685B683B62D0
:101110007B689B68FB617B68DB68BB617B681B69E4
:101120007B617B685B693B617B689B69FB607B687B
:10113000DB69BB600D4801F091FA796A3A6AF86997
:10114000BB69009303460A4801F088FA79693A6955
:10115000F868BB6800930346064801F07FFAFB6815
:1011600019460120FFF7EEFEFEE700BFC072000047
:10117000EC7200002073000080B400AF1EF0040F7A
:101180000CBFEFF30880EFF309808169004A104734
:10119000FD10000000BFBD4680BC704780B584B024
:1011A00000AF164BFB60FB683B603B6883F309882C
:1011B000FB687B607B6883F30888FFF795FF104B23
:1011C0001B6803F00103002B14BF01230023DBB2D3
:1011D000002B01D001F064FA02F0CEFFFFF796FC7D
:1011E000B860BB68002B04DBB968064801F036FA2A
:1011F00003E0B968044801F031FAFEE7E03F082057
:10120000F0ED00E0587300008C73000080B582B0F0
:1012100000AF786039607B68012B11D13B684FF6D5
:10122000FF7293420CD1084B1B6803F00103002BA3
:1012300006D1054B01221A60044B1846FFF79CFAB1
:1012400000BF0837BD4680BD58C2072058C10720DF
:1012500080B500AF4FF6FF710120FFF7D7FF80BDCB
:1012600080B584B000AF284B1B68002B03D0274B00
:1012700001221A6043E0254B00221A6002F072FF3F
:101280000246234B1A60224B1A68224B1B689A4273
:1012900009D9214B1B68596D1D4A10681D4A1268F7
:1012A000821A0A445A651A4B1B681A4A13601B4B70
:1012B0001B687B607B68B3FA83F3FB70FB78C3F138
:1012C0001F03FB60FA6813469B0013449B00144AFB
:1012D0001344BB60BB685B685A68BB685A60BB68F4
:1012E0005A68BB6808339A4204D1BB685B685A6885
:1012F000BB685A60BB685B68DB68074A136000BF65
:101300001037BD4680BD00BFCCC20720C8C2072031
:10131000D4C20720D0C207205CC20720C4C2072065
:1013200060C2072080B400AF01231846BD4680BCD0
:10133000704780B483B000AF786039604FF0FF33FE
:1013400018460C37BD4680BC7047FFFF80B485B09F
:1013500000AF78600B4B1B68FB600A4B1A687B6818
:101360001344094A934201D90023FB60054B1A68D4
:101370007B681344034A1360FB6818461437BD4664
:1013800080BC704714C007200040082080B584B09E
:1013900000AFF860B9607A607B681946B86801F000
:1013A00085F9054B1B687A681146B868984703466B
:1013B00018461037BD4680BD0CC0072080B586B0EA
:1013C00000AFF860B9607A6000237B61FB68002B96
:1013D0000ED10A4B1B680121B86898477861084B09
:1013E0001B78002B04D0074B1B680121B868984775
:1013F0007B6918461837BD4680BD00BF10C0072066
:1014000008C007200CC0072080B584B000AF78600A
:10141000786805F040FA0346FB600023BB60FA6879
:1014200079680020FFF7B2FF0246BB681344BB6037
:10143000012206490020FFF7A9FF0246BB681344BA
:10144000BB60BB6818461037BD4680BDC073000046
:1014500080B483B000AF786000BFFDE780B588B08E
:1014600000AFB9607A603B600346FB73FE237B618B
:101470007A697B68B3FBF2F102FB01F29B1AFB6114
:10148000BA68FB691344FA7B1A70FB7B002B06D108
:10149000FB691A46B9680120FFF778FF12E0FB6983
:1014A0005A1C7B699A420DD17B690133BB61BA68D2
:1014B000BB69134400221A70BB691A46B96801203F
:1014C000FFF764FF00BF2037BD4680BD80B485B004
:1014D00000AFB9607A603B600346FB7300BF14370E
:1014E000BD4680BC704780B485B000AF78607B6833
:1014F000FB60FB681B78002B03D0FB680133FB60AB
:10150000F7E7FA687B68D31A18461437BD4680BCE3
:10151000704780B483B000AF0346FB71FB792F2B7B
:1015200004D9FB79392B01D8012300E000231846A8
:101530000C37BD4680BC704780B584B000AF786082
:101540000023FB607B681B681B781846FFF7E1FFF0
:101550000346002B0FD0FA6813469B0013445B0030
:1015600018467B681B68591C7A6811601B78034415
:10157000303BFB60E6E7FB6818461037BD4680BD90
:1015800090B589B000AFF860B9607A603B607B6865
:101590007B61BB6C03F00203002B0ED17A6B3B6CBA
:1015A0009A420AD27B6B1F2B07D87B6B5A1C7A633B
:1015B0003A6B134430221A70EBE7BB6C03F0020362
:1015C000002B13D1BB6C03F00103002B0ED07A6B00
:1015D0007B6C9A420AD27B6B1F2B07D87B6B5A1C01
:1015E0007A633A6B134430221A70E6E7BB6C03F05F
:1015F0001003002B58D0BB6C03F48063002B16D172
:101600007B6B002B13D07A6B3B6C9A4203D07A6BC6
:101610007B6C9A420BD17B6B013B7B637B6B002B1A
:1016200005D0FB6B102B02D17B6B013B7B63FB6B0B
:10163000102B0FD1BB6C03F02003002B0AD17B6B66
:101640001F2B07D87B6B5A1C7A633A6B13447822A2
:101650001A701FE0FB6B102B0FD1BB6C03F0200343
:10166000002B0AD07B6B1F2B07D87B6B5A1C7A632D
:101670003A6B134458221A700CE0FB6B022B09D111
:101680007B6B1F2B06D87B6B5A1C7A633A6B134417
:1016900062221A707B6B1F2B06D87B6B5A1C7A63F5
:1016A0003A6B134430221A707B6B002B14D07A6B88
:1016B0007B6C9A4210D197F83830002B09D1BB6C63
:1016C00003F00403002B04D1BB6C03F00803002BD0
:1016D00002D07B6B013B7B637B6B1F2B24D897F87D
:1016E0003830002B07D07B6B5A1C7A633A6B13445B
:1016F0002D221A7018E0BB6C03F00403002B07D0F6
:101700007B6B5A1C7A633A6B13442B221A700BE0E2
:10171000BB6C03F00803002B06D07B6B5A1C7A636A
:101720003A6B134420221A70BB6C03F00203002BA7
:1017300016D1BB6C03F00103002B11D17B6BFB6155
:10174000FA697B6C9A420BD27A68531C7B60FC6806
:101750003B68B9682020A047FB690133FB61EFE7D4
:101760000023BB61BA697B6B9A4211D27A6BBB6969
:10177000D31A013B3A6B134418787A68531C7B6088
:10178000FC683B68B968A047BB690133BB61E9E706
:10179000BB6C03F00203002B0ED07A687B69D31A6E
:1017A0007A6C9A4208D97A68531C7B60FC683B6863
:1017B000B9682020A047F0E77B6818462437BD466B
:1017C00090BD80B596B008AFF860B9607A603B60B4
:1017D00000237B633B6C002B03D17B6D23F0100354
:1017E0007B657B6D03F48063002B02D03B6C002B88
:1017F00034D03B6CBA6CB3FBF2F2B96C01FB02F271
:101800009B1A87F8333097F83330092B04D897F8B0
:1018100033303033DAB20DE07B6D03F02003002B60
:1018200001D0412200E0612297F833301344DBB24B
:101830000A3BDAB27B6B591C796307F138010B4420
:1018400003F8282C3A6CBB6CB2FBF3F33B643B6CA3
:10185000002B03D07B6B1F2B00D8CAE77B6D069350
:101860003B6D0593FB6C0493BB6C039397F844307A
:1018700002937B6B019307F1100300933B687A6836
:10188000B968F868FFF77CFE034618463837BD464E
:1018900080BD90B597B008AFF860B9607A603B60E2
:1018A00000237B63D7E91234234303D1BB6E23F0BB
:1018B0001003BB66BB6E03F48063002B03D0D7E933
:1018C000123423433AD0D7E91201D7E9162303F0A3
:1018D000C5FB1C46134687F8333097F83330092B85
:1018E00004D897F833303033DAB20DE0BB6E03F032
:1018F0002003002B01D0412200E0612297F8333011
:101900001344DBB20A3BDAB27B6B591C796307F1F3
:1019100038010B4403F8282CD7E91623D7E9120124
:1019200003F09CFB03460C46C7E91234D7E9123496
:10193000234303D07B6B1F2B00D8C4E7BB6DBA6E6B
:1019400006927A6E05923A6E0492039397F850309D
:1019500002937B6B019307F1100300933B687A6855
:10196000B968F868FFF70CFE034618463C37BD46D9
:1019700090BDFFFF90B599B000AFF860B9607A6094
:101980003B607B68FB63D7E91C0102F0FDFF034667
:10199000FB650023BB654FF00003BB634FF09E4324
:1019A0007B63002387F857304FF00001F86D03F098
:1019B000E7FA0346002B09D0012387F85730F96D69
:1019C0004FF0000003F034F80346FB65D7F8803091
:1019D00003F48063002B01D10623BB67BB6D1F2B73
:1019E0000FD8BB6F092B0CD9BB6D5A1CBA6507F118
:1019F00060021344302203F8502CBB6F013BBB67DD
:101A0000ECE7F86D03F0E4FA03463B65386D03F04C
:101A1000C5F803461946F86D03F00AF80346184660
:101A2000A74ABB6F52F82330194603F00BF903465F
:101A30003B63386B03F0F2FA0346FB64F86C03F087
:101A4000A9F803461946386B02F0F2FF0346BB6360
:101A50004FF07C51B86B03F0B1FA0346002B15D060
:101A6000FB6C0133FB64F86C03F094F8944ABB6F91
:101A700052F82330194603F097FA0346002B18D08A
:101A80000023FB643B6D01333B6512E04FF07C515A
:101A9000B86B03F06BFA0346002B0AD0FB6C002BEB
:101AA00004D0FB6C03F00103002B02D0FB6C01336C
:101AB000FB644FF09E41F86D03F080FA0346002B63
:101AC00001D000235FE1BB6F002B26D1386D03F0FE
:101AD00065F803461946F86D02F0AAFF0346BB639A
:101AE0004FF07C51B86B03F069FA0346002B03D02A
:101AF0003B6D01333B6561E04FF07C51B86B03F007
:101B000035FA0346002B59D03B6D03F00103002B3F
:101B100054D03B6D01333B6550E0BB6FBB64BB6D84
:101B20001F2B28D8BB6C013BBB64F96C654BA3FB36
:101B30000123DA0813469B0013445B00CA1AD3B290
:101B40003033D9B2BB6D5A1CBA6507F16002134439
:101B50000A4603F8502CFB6C5A4AA2FB0323DB080D
:101B6000FB64FB6C002B0CBF01230023DBB2002BBA
:101B700000D1D4E700BFBB6D1F2B06D8BB6C5A1E2B
:101B8000BA64002B01D0012300E00023002B09D010
:101B9000BB6D5A1CBA6507F160021344302203F88A
:101BA000502CE8E7BB6D1F2B08D8BB6D5A1CBA65DB
:101BB00007F1600213442E2203F8502CBB6D1F2B3B
:101BC00029D83A6D404B83FB02139910D317C91AD9
:101BD0000B469B000B445B00D11ACBB23033D9B219
:101BE000BB6D5A1CBA6507F1600213440A4603F83C
:101BF000502C3B6D344A82FB03129210DB17D31A30
:101C00003B653B6D002B0CBF01230023DBB2002B97
:101C100000D1D3E700BFD7F8803003F00203002BD8
:101C200016D1D7F8803003F00103002B10D0BA6D25
:101C3000FB6F9A420CD2BB6D1F2B09D8BB6D5A1C8F
:101C4000BA6507F160021344302203F8502CE2E732
:101C5000BA6DFB6F9A4212D197F85730002B0BD117
:101C6000D7F8803003F00403002B05D1D7F880307B
:101C700003F00803002B02D0BB6D013BBB65BB6DBD
:101C80001F2B32D897F85730002B09D0BB6D5A1C48
:101C9000BA6507F1600213442D2203F8502C24E0AA
:101CA000D7F8803003F00403002B0FD0BB6D5A1C13
:101CB000BA6507F1600213442B2203F8502C14E09C
:101CC000C4730000CDCCCCCC67666666D7F8803094
:101CD00003F00803002B08D0BB6D5A1CBA6507F14E
:101CE00060021344202203F8502CD7F8803003F010
:101CF0000203002B17D1D7F8803003F00103002B2B
:101D000011D1BB6D7B647A6CFB6F9A420BD27A68FF
:101D1000531C7B60FC683B68B9682020A0477B6C43
:101D200001337B64EFE700233B643A6CBB6D9A425E
:101D300013D2BA6D3B6CD31A013B07F16002134416
:101D400013F8500C7A68531C7B60FC683B68B968D8
:101D5000A0473B6C01333B64E7E7D7F8803003F0E2
:101D60000203002B0ED07A68FB6BD31AFA6F9A42EB
:101D700008D97A68531C7B60FC683B68B9682020EE
:101D8000A047F0E77B6818466437BD4690BD00BFAA
:101D9000B0B5A0B00AAFF860B9607A603B600023CC
:101DA0007B64BB68002B01D1A24BFB603B681B78B6
:101DB000002B00F040843B681B78252B0DD03B683E
:101DC00018787A6C531C7B64FC687B68B968A04700
:101DD0003B6801333B6000F02CBC3B6801333B6047
:101DE00000237B653B681B78203B102B56D801A253
:101DF00052F823F0751E00009D1E00009D1E00007D
:101E0000891E00009D1E00009D1E00009D1E0000FA
:101E10009D1E00009D1E00009D1E00009D1E0000D6
:101E2000611E00009D1E00004D1E00009D1E000052
:101E30009D1E0000391E00007B6D43F001037B6591
:101E40003B6801333B600123BB642AE07B6D43F0B8
:101E500002037B653B6801333B600123BB6420E0E8
:101E60007B6D43F004037B653B6801333B600123DA
:101E7000BB6416E07B6D43F008037B653B68013370
:101E80003B600123BB640CE07B6D43F010037B657A
:101E90003B6801333B600123BB6402E00023BB6469
:101EA00000BFBB6C002B00D09CE700233B653B6868
:101EB0001B781846FFF72DFB0346002B05D03B4649
:101EC0001846FFF739FB386518E03B681B782A2B6A
:101ED00014D1BB6E1A1DBA661B683B633B6B002BAB
:101EE00007DA7B6D43F002037B653B6B5B423B652E
:101EF00001E03B6B3B653B6801333B600023FB64C7
:101F00003B681B782E2B24D17B6D43F480637B656B
:101F10003B6801333B603B681B781846FFF7F9FAD2
:101F20000346002B05D03B461846FFF705FBF86437
:101F30000FE03B681B782A2B0BD1BB6E1A1DBA66CB
:101F40001B68FB62FB6A23EAE373FB643B680133B3
:101F50003B603B681B78683B122B67D801A252F8A4
:101F600023F000BFD71F00002D2000000D2000002F
:101F70002D200000B11F00002D2000002D200000AA
:101F80002D2000002D2000002D2000002D2000001D
:101F90002D200000FD1F00002D2000002D2000003E
:101FA0002D2000002D2000002D2000001D2000000D
:101FB0007B6D43F480737B653B6801333B603B681A
:101FC0001B786C2B34D17B6D43F400737B653B68CD
:101FD00001333B602CE07B6D43F080037B653B6805
:101FE00001333B603B681B78682B25D17B6D43F048
:101FF00040037B653B6801333B601DE07B6D43F430
:1020000080737B653B6801333B6016E07B6D43F476
:1020100000737B653B6801333B600EE07B6D43F4EE
:1020200080737B653B6801333B6006E000BF04E0E2
:1020300000BF02E0CD14000000BF3B681B78253BC9
:10204000532B00F2E98201A252F823F0012600008E
:102050001926000019260000192600001926000084
:102060001926000019260000192600001926000074
:102070001926000019260000192600001926000064
:102080001926000019260000192600001926000054
:102090001926000019260000192600001926000044
:1020A0001926000019260000192600001926000034
:1020B0001926000019260000192600001926000024
:1020C0001926000019260000192600001926000014
:1020D00025240000192600001926000019260000FA
:1020E00019260000192600001926000019260000F4
:1020F00019260000192600001926000019260000E4
:1021000019260000192600001926000019260000D3
:1021100019260000192600009D2100001926000044
:1021200019260000192600001926000019260000B3
:1021300019260000192600001926000019260000A3
:102140009D2100005B2400009D2100001926000055
:102150002524000019260000192600009D210000FA
:102160001926000019260000192600001926000073
:10217000192600009D210000B92500001926000045
:1021800019260000E3240000192600009D2100000C
:1021900019260000192600009D2100003B681B78CD
:1021A000782B03D03B681B78582B02D110233B645B
:1021B00013E03B681B786F2B02D108233B640CE0D3
:1021C0003B681B78622B02D102233B6405E00A23A3
:1021D0003B647B6D23F010037B653B681B78582BB9
:1021E00003D17B6D43F020037B653B681B78692B33
:1021F00007D03B681B78642B03D07B6D23F00C0366
:102200007B657B6D03F48063002B03D07B6D23F033
:1022100001037B653B681B78692B04D03B681B7806
:10222000642B40F08C807B6D03F40073002B2DD069
:10223000BB6E073323F0070303F10802BA6618CB1D
:10224000C7E90434D7E90434002B74F1000202DA40
:102250005B4264EB4404194622467B69DB0FD8B22B
:102260003B6C4FF000047D6D08953D6D0795FD6C4E
:102270000695CDE904340290CDE900127B687A6CB2
:10228000B968F868FFF705FB7864C7E07B6D03F475
:102290008073002B1ED0BB6E1A1DBA661B68FB61D3
:1022A000FB69002BB8BF5B421946FB69DB0FDBB251
:1022B0007A6D05923A6D0492FA6C03923A6C02922E
:1022C000019300917B687A6CB968F868FFF779FA36
:1022D0007864A3E07B6D03F04003002B05D0BB6E58
:1022E0001A1DBA661B68DBB20EE07B6D03F080033B
:1022F000002B05D0BB6E1A1DBA661B681BB203E02B
:10230000BB6E1A1DBA661B683B623B6A002BB8BFE6
:102310005B4219463B6ADB0FDBB27A6D05923A6D80
:102320000492FA6C03923A6C0292019300917B68DA
:102330007A6CB968F868FFF744FA78646EE07B6DF0
:1023400003F40073002B1FD0BB6E073323F0070389
:1023500003F10802BA6618CB3A6C11464FF000023E
:10236000786D0890386D0790F86C0690CDE90412EE
:1023700000220292CDE900347B687A6CB968F86873
:10238000FFF787FA786449E07B6D03F48073002BD4
:1023900016D0BB6E1A1DBA661B687A6D05923A6D2F
:1023A0000492FA6C03923A6C02920022019200931A
:1023B0007B687A6CB968F868FFF703FA78642DE0F7
:1023C0007B6D03F04003002B05D0BB6E1A1DBA666F
:1023D0001B68DBB20EE07B6D03F08003002B05D0A1
:1023E000BB6E1A1DBA661B689BB203E0BB6E1A1D5A
:1023F000BA661B687B627B6D05933B6D0493FB6C37
:1024000003933B6C0293002301937B6A00937B68E8
:102410007A6CB968F868FFF7D4F978643B680133DF
:102420003B6006E1BB6E073323F0070303F10802AC
:10243000BA6618CB7A6D04923A6D0392FA6C0292E6
:10244000CDE900347B687A6CB968F868FFF792FAD6
:1024500078643B6801333B60EBE00123FB637B6DF9
:1024600003F00203002B13D1FB6B5A1CFA633A6D85
:102470009A428CBF01230023DBB2002B08D07A6C78
:10248000531C7B64FC687B68B9682020A047EBE79D
:10249000BB6E1A1DBA661B68D8B27A6C531C7B647B
:1024A000FC687B68B968A0477B6D03F00203002BD2
:1024B00013D0FB6B5A1CFA633A6D9A428CBF01230E
:1024C0000023DBB2002B08D07A6C531C7B64FC68C1
:1024D0007B68B9682020A047EBE73B6801333B608D
:1024E000A7E0BB6E1A1DBA661B68BB63B86BFEF72C
:1024F000FAFF78637B6D03F48063002B07D07A6B5F
:10250000FB6C9A4201D27B6B00E0FB6C7B637B6DC2
:1025100003F00203002B13D17B6B5A1C7A633A6DD4
:102520009A428CBF01230023DBB2002B08D07A6CC7
:10253000531C7B64FC687B68B9682020A047EBE7EC
:10254000BB6B1B78002B0BD07B6D03F48063002BDF
:1025500004D0FB6C5A1EFA64002B01D0012300E06A
:102560000023002B0BD0BB6B5A1CBA6318787A6C13
:10257000531C7B64FC687B68B968A047E0E77B6D0F
:1025800003F00203002B13D07B6B5A1C7A633A6D65
:102590009A428CBF01230023DBB2002B08D07A6C57
:1025A000531C7B64FC687B68B9682020A047EBE77C
:1025B0003B6801333B603CE008233B657B6D43F0A7
:1025C00021037B65002387F82B30BB6E1A1DBA668A
:1025D0001B681A467B6D05933B6D0493FB6C03935C
:1025E000102302930023019300927B687A6CB968F0
:1025F000F868FFF7E6F878643B6801333B6018E061
:102600007A6C531C7B64FC687B68B9682520A04702
:102610003B6801333B600CE03B6818787A6C531CD4
:102620007B64FC687B68B968A0473B6801333B600A
:1026300000BFFFF7BBBB7A6C7B689A4202D37B6812
:102640005A1E00E07A6CFC687B68B9680020A047DD
:102650007B6C18465837BD46B0BD00BF0FB480B57F
:10266000C4B002AF07F58A73C7F800313946D7F80E
:1026700000310093D7F810314FF0FF320748FFF7D1
:1026800087FBC7F80401D7F80431184607F58477AB
:10269000BD46BDE8804004B0704700BF5D14000037
:1026A00080B400AF00BFBD4680BC704780B582B02B
:1026B00000AF786039603968786800F005F8034643
:1026C00018460837BD4680BDB0B58CB000AF786005
:1026D00039602D4B1B6803F00103002B0CBF012355
:1026E0000023DBB2002B01D03B6849E0274B1B687D
:1026F000002B1DD1264BBB600423FB6003233B61F1
:102700000123BB6207F108037B62BC6A7D6A204635
:102710002946ABBE04463C623B6AFB62FB6AB3F1EE
:10272000FF3F02D14FF0FF332AE0184AFB6A1360E3
:10273000164B1B68BB607B68FB603B683B610523F5
:10274000FB6107F10803BB61FC69BD6920462946AE
:10275000ABBE04467C617B69FB62FB6AB3F1FF3F61
:1027600002D14FF0FF330BE03B681A46FB6A9342FD
:1027700002D14FF0FF3303E03B681A46FB6AD31ADD
:1027800018463037BD46B0BDF0ED00E0D8C2072096
:10279000EC73000080B400AF4FF400031846BD4650
:1027A00080BC704780B400AF4FF050531846BD4610
:1027B00080BC704780B483B000AF78600C4B1B685E
:1027C000DA680B4B1B6842F08072DA60094B1B68B9
:1027D00000225A60074B1B681A68064B1B6842F0C0
:1027E00001021A6000BF0C37BD4680BC704700BFB5
:1027F0001CC0072018C0072080B483B000AF7860E9
:10280000034B1B685B6818460C37BD4680BC70479D
:1028100018C0072080B582B000AF78604FF000018B
:10282000786802F0ADFB0346002B03D07B6883F091
:10283000004300E07B6818460837BD4680BD80B580
:1028400084B000AFC7E90001D7E9000102F0B4F994
:10285000024607F10C031146184600F014F8FB6815
:1028600018461037BD4680BD80B483B000AF786095
:1028700039603B681A687B681A607B6818460C37B9
:10288000BD4680BC704780B582B000AF78603960CB
:102890007B683A4611461846FFF7E6FF7B68184604
:1028A0000837BD4680BDF0B583B000AF78603960B1
:1028B0007B681C683B68184600F04AF803461946D6
:1028C000204602F0B5F803461846FFF7A3FF054679
:1028D000FFF768FF06467B681C683B68184600F0F7
:1028E00037F803461946204602F0A4F80346184676
:1028F000FFF790FF03461946304602F0A3F903465E
:102900001946284602F03CFB0346002B19D17B6890
:102910001C683B68184600F01BF803461946204621
:1029200002F086F803461846FFF774FF0446FFF7E7
:1029300031FF03461946204602F022FB0346002BD6
:1029400001D0012300E0002318460C37BD46F0BD3E
:1029500080B586B000AF7860786800F005F803466F
:1029600018461837BD4680BD80B485B000AFF8600A
:1029700039723A713B70FB681B6818461437BD46C4
:1029800080BC7047B0B582B000AF786039607B68BA
:102990001C683B681846FFF7DBFF024601231D4613
:1029A0001146204602F0F6FA0346002B01D100231F
:1029B0001D46EBB218460837BD46B0BD80B483B0A3
:1029C00000AF7860034A7B68136000BF0C37BD46D8
:1029D00080BC704700C0072080B582B000AF094BB3
:1029E0001B685B68DBB27B60074A7B681360074A41
:1029F0007B6852F823303B603B68984700BF08373C
:102A0000BD4680BD20C0072004C0072058C1072054
:102A100080B586B000AF786039607B681B6808338A
:102A20001B6839687868984778614FF00003FB604D
:102A30007B69002B0FD07B681B680C331B687868A0
:102A4000984703463B6107F110037969184601F086
:102A5000EBFB0346FB60FB6818461837BD4680BD9C
:102A600080B582B000AF78607B68184600F004F84B
:102A700078680837BD4680BD80B582B000AF786009
:102A800003497868FDF728FF78680837BD4680BDA0
:102A9000C86A000080B584B000AF07F1080318468B
:102AA000FFF7DEFF07F108023B4611461846FDF727
:102AB00079FF3B461946074801F0D5FB064B1B68DA
:102AC000002B02D0044B1B68984700BF1037BD464F
:102AD00080BD00BFE0C20720DCC2072090B482B0F6
:102AE00000AF78607A68044B18CBC2E9003478688C
:102AF0000837BD4690BC7047E0C2072080B483B061
:102B000000AF786000BF0C37BD4680BC7047FFFF48
:102B100080B483B000AF78603960044A3B681360CA
:102B200000BF0C37BD4680BC704700BFDCC2072029
:102B3000F0B58BB002AF78600423FB611F4B1B68BC
:102B40005B68002B14BF01230023DBB2002B30D0C5
:102B50001A4B1B6800229A60184B1B681A68174BA7
:102B60001B6842F002021A60144B1B681A68134B70
:102B70001B6842F001021A60104B1B681A680F4B69
:102B80001B6842F004021A607B689E687B689B6841
:102B90001B681D680A4B07F10C040FCB84E80F007B
:102BA000BB69009307F10C030ECB3046A847002306
:102BB000FB61FB6918462437BD46F0BD24C00720E1
:102BC0008075000080B483B000AF78607B681B68BC
:102BD00018460C37BD4680BC704790B585B000AF35
:102BE000786039607B681846FFF7ECFF04463B6865
:102BF0001846FFF7E7FF0346FB6007F10C03184692
:102C0000FFF7A6FE03461946204602F0CFF803461A
:102C10001A4607F108031146184600F005F8BB688C
:102C200018461437BD4690BD80B582B000AF7860BD
:102C300039607B683A4611461846FFF715FE7B68F7
:102C400018460837BD4680BD90B585B000AF7860A6
:102C500039607B681846FFF7B5FF0446386801F015
:102C60009DFF03461946204601F0E2FE03461A4640
:102C700007F10C0311461846FFF7D6FFFB6818460C
:102C80001437BD4690BD80B582B000AF78607868DB
:102C900001F001FB034618460837BD4680BD80B5EC
:102CA00082B000AF7860786800F005F803461846F7
:102CB0000837BD4680BD80B582B000AF78607B68C4
:102CC0001846FFF77FFF0346184602F0A7F90346B0
:102CD00018460837BD4680BD90B589B000AF786012
:102CE00039604FF001004FF00001FFF7A8FD0346E7
:102CF000FB6007F10C023B4611461846FFF742FE07
:102D00000346002B02D04FF0FF3341E07B685A6846
:102D10007B685B681B680C331B681046984703464A
:102D2000BB603A4607F1080311461846FFF755FF06
:102D300003467B6107F1140301211846FFF784FF66
:102D400003463B6107F110031846FFF79CFFF8614B
:102D500007F108031846FFF7A2FF04463B46184652
:102D6000FFF79DFF0346B4FBF3F203FB02F3E31A04
:102D7000BB61FB69B3F1807F05D36FF07F43FB61DB
:102D80006FF07F43BB61044B1B68FA695A60BB69F3
:102D900018462437BD4690BD24C0072080B485B0B6
:102DA00000AF03460A46FB711346BB71FB793B73C8
:102DB000BA79FB79D31ADBB20133DBB27B73002320
:102DC0003A7B62F307037A7B62F30F2318461437CA
:102DD000BD4680BC704780B586B000AF786078682B
:102DE00000F006F8034618461837BD4680BDFFFFC1
:102DF00080B584B000AFF86039723A713B70FB68FF
:102E00001B680449184601F01DFF03461846103799
:102E1000BD4680BD0024744990B585B000AF786090
:102E200039607C683B681846FFF7D5FF0346BB60F6
:102E300007F10C0207F108031946204600F005F8D7
:102E40007B6818461437BD4690BD80B485B000AF8E
:102E5000F860B9607A60BB681A68FB681A60FB6842
:102E600018461437BD4680BC7047FFFF90B585B04B
:102E700000AF78603960634B1B68D3F88020614BEA
:102E80001C680121104601F01EFA0346C4F8803088
:102E90000021786800F076FB5A4B1B68D3F880203D
:102EA000584B1C680021104601F00DFA0346C4F887
:102EB00080300021786800F065FB0021786800F020
:102EC00013FC0021786800F0E5F93A4607F10C039D
:102ED00011461846FFF7A0FF4B4BFA68196878684F
:102EE00000F034FA0346BB60464B1B68D3F88400FD
:102EF0003989444B1C68454B1A785B781B021A438E
:102F0000002362F30F031A4601F0EFF90346C4F8F9
:102F100084303C4B1B68D3F88400B97A394B1C6869
:102F20003B4B1A785B781B021A43002362F30F03B2
:102F30001A4601F0EDF90346C4F8843000217868A0
:102F400000F020FB2F4B1B68D3F880202D4B1C6812
:102F50000021104601F0EFF90346C4F8803000214B
:102F6000786800F00FFBFB7A1946786800F0BCFB2C
:102F70000021786800F034FB034683F00103DBB2E4
:102F8000002B0DD0C523234A23492448FFF766FBB5
:102F90002348FEF739FA00210120FDF7D3FFFEE7B1
:102FA000184B1B68D3F88020164B1C680121104673
:102FB00001F0C1F90346C4F880300021786800F0C0
:102FC000E1FA0021786800F04DFB034683F001032D
:102FD000DBB2002B0DD0CC230E4A12491248FFF76A
:102FE0003DFB0F48FEF710FA00210120FDF7AAFF74
:102FF000FEE73B4619460D4801F0AEF900BF143715
:10300000BD4690BDE8C207208C7D0000847D000095
:10301000887D0000E47F0000907D00009075000036
:103020005C760000A87D00007476000028C00720B0
:1030300080B588B000AFF860B9601346FB71BB681B
:103040001B780D22934204D0BB681B780E2293425A
:1030500001D1012300E00023FB75FB79013B072B25
:1030600048D801A252F823F0893000008F300000C8
:10307000F530000095300000F53000009B30000076
:10308000F5300000CB3000000123FB7741E0022344
:10309000FB773EE00023FB773BE0FB7D83F0010301
:1030A000DBB2002B0ED04FF48E73264A26492748F8
:1030B000FFF7D4FA2648FEF7A7F900210120FDF713
:1030C00041FFFEE70323FB7723E0FB7D002B0ED0BF
:1030D0004FF492731B4A1F491F48FFF7BFFA1C4861
:1030E000FEF792F900210120FDF72CFFFEE70323F4
:1030F000FB770EE04FF49673124A18491848FFF711
:10310000ADFA1348FEF780F900210120FDF71AFF00
:10311000FEE7B968F86800F00BFBB861B968F868B9
:1031200000F020FB0346BB82BB691B68F97F7A690C
:10313000184601F0EDF80246BB691A6000BF20375F
:10314000BD4680BD607F0000C07D00002C77000080
:103150005C760000D87D0000EC770000F07D000078
:10316000AC78000080B586B000AF7860396039680F
:10317000786800F0DDFA38613968786800F0F2FAB2
:103180000346BB813B691B68F968184601F0F5F8F6
:103190000346FB73FB7B032B1ED801A252F823F0DE
:1031A000B1310000B7310000BD310000C331000073
:1031B0000423FB7510E00123FB750DE00223FB7572
:1031C0000AE03B681B780D3B012B02D80623FB75F8
:1031D00002E00823FB7500BFFB7D18461837BD468B
:1031E00080BD00BF80B483B000AF7860034B1B6824
:1031F00018460C37BD4680BC704700BF28C007206A
:1032000080B582B000AF78603960074B1B68D3F897
:10321000C4203B681B781946104601F0BFF80346EE
:1032200018460837BD4680BDE8C2072090B583B078
:1032300000AF78603960094B1B68D3F8C4203B6845
:103240001B781946054B1C68104601F074F80346BC
:10325000C4F8C43000BF0C37BD4690BDE8C207209B
:1032600090B583B000AF78603960094B1B68D3F824
:10327000C4203B681B781946054B1C68104601F0BA
:1032800022F80346C4F8C43000BF0C37BD4690BDD9
:10329000E8C2072090B583B000AF78600B46FB70A2
:1032A0000C4B1B68D3F80C01F9780A4B1C680A4BCD
:1032B0001A785B781B021A43002362F30F031A4645
:1032C00001F082F80346C4F80C3100BF0C37BD464C
:1032D00090BD00BFE8C207207C7D0000B0B582B081
:1032E00000AF786039607B681C683B681846FFF760
:1032F0002FFB024601231D461146204601F05EFECB
:103300000346002B01D100231D46EBB218460837B7
:10331000BD46B0BDB0B582B000AF786039607B68A3
:103320001C683B681846FFF713FB024601231D4645
:103330001146204601F024FE0346002B01D1002354
:103340001D46EBB218460837BD46B0BD80B590B0FB
:1033500000AFF860B9607A604FF00003FB62764B13
:10336000FB624FF00003BB62744BBB624FF0000383
:103370007B62734B7B624FF000033B62714B3B629D
:103380004FF00003FB61704BFB6107F12C0207F16A
:10339000080311461846FFF7A1FF034683F0010317
:1033A000DBB2002B0DD107F1280207F1080311460B
:1033B0001846FFF7AFFF034683F00103DBB2002B93
:1033C00001D0012300E00023002B0ED040F2931324
:1033D0005E4A5F495F48FFF741F95F48FEF714F81E
:1033E00000210120FDF7AEFDFEE707F11C023B1DA9
:1033F00011461846FFF78EFF034683F00103DBB248
:10340000002B0ED04FF4CB73504A54495448FFF769
:1034100025F95148FDF7F8FF00210120FDF792FD45
:10342000FEE7002387F83F3097F83F301F2B68D81E
:1034300040F2FF13BB87BB8F052B5CD9BB8F0133D9
:103440005B0007F108021146184600F0CFFF034663
:103450003B6397F83F305A1C07F13003114618467A
:1034600000F0E3FF0346BB6107F1180207F12403F4
:1034700011461846FFF74EFF0346002B0CD007F10C
:10348000200207F1180311461846FFF743FF0346D1
:10349000002B01D0012300E00023002B27D00223C2
:1034A0007B877B8FFF2B22D87B8F5A1C07F1180359
:1034B0001146184600F0B9FF03467B613A1D07F13B
:1034C000140311461846FFF7EEF90346002B0AD005
:1034D000BB8FBB8697F83F3087F836307B8FDBB2E7
:1034E00087F837301CE07B8F01337B87D9E7BB8FB0
:1034F000013BBB879FE797F83F30013387F83F30A8
:1035000092E740F2C113114A16491748FFF7A6F88F
:103510001148FDF779FF00210120FDF713FDFEE7BB
:103520000023BA8E62F30F03FA8E62F31F4318462C
:103530004037BD4680BD00BF0000FA4620BC3E4C6F
:103540005621834D5621034E20BCBE4C50800000B6
:10355000087E0000A47900005C760000207E000058
:10356000A87A0000387E0000747B000080B483B02D
:1035700000AF0346FB71FB7918460C37BD4680BC93
:103580007047FFFF80B584B000AF78600B46FB70DA
:10359000124B1B688C33BB60104B1B68AC33FB6059
:1035A000FB781846FFF7E2FF03469B0007F1100285
:1035B000134453F8083CAA221A60FB781846FFF718
:1035C000D5FF03469B0007F11002134453F8083C53
:1035D00055221A6000BF1037BD4680BDE8C20720E3
:1035E00080B588B000AF78600B46FB701B4B1B6842
:1035F00088337B61194B1B68A833BB61184B1B6870
:103600003B61FB781846FFF7B1FF03469B0007F1CB
:103610002002134453F80C3CFB61FB781846FFF77B
:10362000A5FF03465B0007F12002134433F8103C6A
:10363000BB81FB691B683A7B1146184600F0AEFE61
:10364000034683F00103DBB2002B01D000BFF0E79B
:10365000012318462037BD4680BD00BFE8C20720C1
:103660002C7C000080B588B000AF78600B46FB7002
:103670001B4B1B6888337B61194B1B68A833BB61EC
:10368000184B1B683B61FB781846FFF76FFF03463A
:103690009B0007F12002134453F80C3CFB61FB78BC
:1036A0001846FFF763FF03465B0007F1200213444F
:1036B00033F8103CBB81FB691B683A7B1146184606
:1036C00000F06CFE034683F00103DBB2002B01D057
:1036D00000BFF0E7012318462037BD4680BD00BF7C
:1036E000E8C20720307C000090B583B000AF78605E
:1036F0000B46FB700C4B1B68D3F804010A4B1C688B
:103700000A4BF9781A785B781B021A43002362F39C
:103710000F031A4600F0FCFD0346C4F8043100BF55
:103720000C37BD4690BD00BFE8C20720807D000079
:1037300080B483B000AF786039603B681B780F2B92
:1037400004D9074B1B6803F5D67303E0044B1B68D1
:1037500003F5D47318460C37BD4680BC704700BFD4
:10376000E8C2072080B584B000AF786039602023BC
:10377000FB733B681B785B00DBB203F01E03BB737B
:10378000BB7B01337B737A7BBB7B11461846FFF70B
:1037900005FB03463B8100233A7A62F307037A7AFA
:1037A00062F30F2318461037BD4680BD80B483B046
:1037B00000AF78607B681B7918460C37BD4680BC2B
:1037C000704780B483B000AF78607B685B7918463F
:1037D0000C37BD4680BC704790B585B000AF7860AF
:1037E0000B46FB70786800F08FF8F8600B4B1B6895
:1037F000FA6853F82200094B1C687B68F978DA886C
:10380000002362F30F031A4600F082FD0246FB68B4
:1038100044F8232000BF1437BD4690BDECC20720FA
:1038200080B483B000AF0346FB71FB7918460C37B8
:10383000BD4680BC7047FFFFB0B584B000AF786074
:103840000B46FB70786800F05FF8F8600F4B1B6860
:10385000FA6853F82250FB781846FFF7E1FF034659
:103860001A460B4B995C094B1C687B68DA8800236D
:1038700062F30F031A46284600F04AFD0246FB6831
:1038800044F8232000BF1037BD46B0BDF0C207206A
:10389000507E000080B582B000AF78600B46FB70B0
:1038A0005423044A04490548FEF7D8FE00BF0837F0
:1038B000BD4680BDEC800000547E0000347C0000DA
:1038C000B0B584B000AF78600B46FB700D4B1B6841
:1038D0007A68127953F822007B685B793B73012385
:1038E0007B73084B1C687B681B791D46FB78FA6864
:1038F000194600F0B9FD034644F8253000BF1037E3
:10390000BD46B0BDF4C2072080B485B000AF78607A
:103910007B685B790F2B01D9012300E00023FB605A
:103920007B681B795B001A46FB6813441846143702
:10393000BD4680BC7047FFFF80B582B000AF7860A5
:103940000B46FB70084BF9781A785B781B021A4318
:10395000002362F30F031A46786800F059F800BF9D
:103960000837BD4680BD00BF5C7E000080B582B0D8
:1039700000AF78600B46FB70084BF9781A785B78DB
:103980001B021A43002362F30F031A46786800F003
:103990003FF800BF0837BD4680BD00BF607E000015
:1039A00080B582B000AF78600B46FB70FB7883F087
:1039B0000103DBB21946084B1A785B781B021A43E5
:1039C000002362F30F031A46786800F021F800BF65
:1039D0000837BD4680BD00BF647E000080B582B060
:1039E00000AF78600B46FB70F978084B1A785B786B
:1039F0001B021A43002362F30F031A46786800F093
:103A000007F800BF0837BD4680BD00BF687E0000D4
:103A1000F0B587B000AFF8600B46BA80FB72FB6868
:103A20003B61194B1C683B691846FFF7BFFE034614
:103A30001D463B691846FFF7C4FE03461A466B0154
:103A400013449B0023441B68F97A7A68184600F0F7
:103A50005FFC0546FB687B610B4B1C687B69184665
:103A6000FFF7A4FE03461E467B691846FFF7A9FE32
:103A700003461A46730113449B0023441D6000BF94
:103A80001C37BD46F0BD00BF44C1072080B588B0DB
:103A900000AF786039607B6800221A607B68002282
:103AA0005A607B6801229A600023FB770023BB6188
:103AB000BB690E2B49DCFB7F002B46D1BB69013370
:103AC0007B617B690E2B3CDCFB7F002B39D1B86915
:103AD00001F064F803463B61786901F05FF8034642
:103AE000FB60F968386901F061F903464FF07E51D7
:103AF000184600F09FFF0346BB601649B86800F007
:103B000099FF03461946386801F044FA0346002B32
:103B100013D01049B86800F08BFF03461946386887
:103B200001F042FA0346002B07D0BA697B685A605D
:103B30007A697B689A600123FB777B6901337B613B
:103B4000BFE7BB690133BB61B2E700BF78682037CC
:103B5000BD4680BDCDCC4C3D80B586B000AFF86091
:103B6000B9607A60786801F015F803467B614FF020
:103B70008341F86801F066F80346B968184601F019
:103B800061F803461946786901F010F903461846B2
:103B90001837BD4680BD80B586B000AFF860B9600B
:103BA0007A60786800F0F6FF03467B614FF083414E
:103BB000F86801F047F80346B968184601F042F882
:103BC00003461946786901F0F1F80346184618379C
:103BD000BD4680BD80B582B000AF78604FF07C51AB
:103BE000786800F027FF0346184601F0F1F9034614
:103BF000184600F0D3FF034618460837BD4680BD7F
:103C000080B586B000AF78600023FB757868FFF759
:103C1000E1FF38613969786800F00AFF0346FB600C
:103C20000A49F86801F0C0F90346002B08D008499A
:103C3000F86801F0AFF90346002B01D00123FB75B2
:103C4000FB7D18461837BD4680BD00BFCDCC4CBDAE
:103C5000CDCC4C3D90B591B000AFF861B9617A61BF
:103C600007F114031846FFF71AF8B8620023FB6344
:103C7000FB6900221A60FB6900225A60FB6901227D
:103C80009A60B86900F086FF03467B624FF000033C
:103C9000BB634FF07F537B634FF07E533B634FF02A
:103CA0008043FB62FB6B042B00F0A080FB6B032BBB
:103CB00000F29A8001A252F823F000BFCD3C000030
:103CC0001B3D0000633D0000C13D0000BA6A4FF09B
:103CD0007E51786AFFF740FFB8634FF07E51B86BB2
:103CE00001F04EF90346002B05D0FB6900221A6053
:103CF0000423FB6379E0B86BFFF782FF0346002BD8
:103D000008D0B86B01F08AF90246FB691A600423F7
:103D1000FB636AE00123FB6367E0BA6A796B786A48
:103D2000FFF71AFF03461846FFF754FFB863BA6A55
:103D3000B96B786AFFF72FFF78632F49786B01F032
:103D400033F90346002B09D02C49786B01F022F996
:103D50000346002B02D00323FB6346E00223FB63F0
:103D600043E04FF07E51F86A00F064FE0346FB62C8
:103D70002349386B01F022F90346002B02D00423BB
:103D8000FB6332E01E49F86A01F018F90346002B84
:103D90000DD04FF07E51386B00F04CFE03463B6374
:103DA0004FF07E51386B00F045FE0346FB62F96A26
:103DB000386B00F0FBFF03467B630123FB6314E0D9
:103DC000FC693B46796B1846FFF760FE3B4693E87B
:103DD000070084E80700B86B01F020F90246FB6990
:103DE0001A600423FB6300E000BF5BE700BFF869D3
:103DF0004437BD4690BD00BFCDCC8C3F3333F33F3D
:103E00000000704180B584B000AF7860396007234E
:103E1000FB737B6898687B689B681B6814331B681E
:103E20007A6852680432114698473968786800F019
:103E300049F87B685B68D8687B685B68DB681B68EF
:103E40001B687A685268127CC2F3C202D2B2114671
:103E500098477B685B6898687B685B689B681B68B1
:103E60001B687A685268127CC2F30202D2B2114611
:103E700098477B685B68DA687B685B68DB681B680F
:103E800004331B680221104698477B685B689A6878
:103E90007B685B689B681B6804331B6802211046C3
:103EA00098477B685B681B681B7ADAB27B685B6843
:103EB0001B6842F00702D2B21A720023184610376C
:103EC000BD4680BD80B586B000AF786039607B6844
:103ED0009A687B685B68043319461046FEF798FDC4
:103EE000024607F1080339681846FFF7B3FE80233E
:103EF000FB75BB681B0ABB75BB687B753B69DBB296
:103F00001B01DAB2FB68DBB203F00F03DBB2134331
:103F10003B757B685B681B6880221A737B685B68F3
:103F20001B68BA7D1A717B685B681B687A7D1A70A2
:103F30007B685B681B683A7D83F828207B685B6838
:103F40001B6803221A73012318461837BD4680BD2B
:103F500080B586B000AFF860B9607A6000237B61FD
:103F60007A697B689A4216D2BA687B691A44FB6800
:103F70005B681B6812781A70F86800F0B5F80346A1
:103F800083F00103DBB2002B01D000BFF4E77B69B3
:103F900001337B61E4E700BF1837BD4680BD90B5B3
:103FA00083B000AF78607B681B68184600F08AF821
:103FB0000346002B10D07B681B685B681B681B786E
:103FC000DCB27B685B6819687B68DA681368581C28
:103FD00010600B4422461A707B68DB681A687B68A5
:103FE0009B689A4201D3012300E0002318460C3756
:103FF000BD4690BD90B59DB000AF78613961FA6063
:104000000023FB637B693B6407F110037B64FB685F
:10401000BB6407F13C03FB64D7E92034C7E90834EB
:1040200007F12C0407F140030FCB84E80F0007F1E0
:1040300060031846FCF747FE07F1600207F1200312
:1040400011461846FCF753FE0346002B04D0D7E96F
:104050000834C7E9063411E0194B1B6807F1580210
:10406000104698473B4607F1200207F158011846D1
:10407000FCF762FED7E90034C7E906340123FB668A
:104080000F4B1B6807F150021046984707F11802C2
:1040900007F1500311461846FCF779FE0346002B42
:1040A00009D007F12C031846FFF779FF0346002BD0
:1040B000E6D00023FB66FB6E18467437BD4690BD04
:1040C00000C0072080B582B000AF78607B685B6875
:1040D0001B681B7DDBB20021184600F0D8F90346AF
:1040E00018460837BD4680BD80B582B000AF786005
:1040F0007B685B681B681B7DDBB20521184600F0FE
:10410000C6F9034618460837BD4680BD80B582B063
:1041100000AF786039603A6879680448FFF718FFA3
:104120003B6818460837BD4680BD00BFA8C00720C1
:1041300090B587B002AF7860396007F10803184680
:10414000FCF7C1FDD7E90234CDE900343A6879685B
:104150000348FFF74FFF3B6818461437BD4690BD34
:10416000A8C0072080B500AF0248FEF745FB034614
:10417000184680BDFCC2072080B582B000AF1C4B42
:1041800019681C48FEF772FE01221B491948FEF708
:104190004FFF4FF416411948FFF734FE184800F05E
:1041A000C1FB184800F0CCFB174B19681748FEF705
:1041B00093FD1648FEF7BCFC78607B68002B0DD0A1
:1041C000C623134A13491448FEF748FA1348FDF76B
:1041D0001BF900210120FCF7B5FEFEE71048FEF7B1
:1041E000E9FA1048FEF7EAFB00BF0837BD4680BD7C
:1041F000F0730000A4C00720787D0000A8C007204D
:104200000D41000031410000F4730000B4C00720EC
:104210002C810000CC7E0000A47C00005C760000B5
:10422000FCC20720DD2A000090B585B000AF7860A1
:1042300039607B681846FEF7C5FC0446386800F014
:10424000A9FC03461946204600F0B0FD03461A4675
:1042500007F10C0311461846FEF715FBFB681846DC
:104260001437BD4690BDF0B583B000AF78603960BB
:104270003868FCF7B1FB0A4601467B68D3E9005673
:104280006B1846EB02047A68C2E900347B68184672
:104290000C37BD46F0BD80B584B000AF78607B6858
:1042A0001846FEF78FFC0346FB6007F10C03184627
:1042B00000F003F90346184600F0B0FE0346184626
:1042C0001037BD4680BD80B483B000AF78603960E0
:1042D00001223B6802FA03F3DB431A467B68134072
:1042E00018460C37BD4680BC704780B584B000AF1F
:1042F000F8600B46BA807B813B791A467B797989D5
:10430000F86800F0E6F8034618461037BD4680BD51
:1043100080B584B000AFF8600B46BA80FB723B7981
:104320001A467B79F97AF86800F0FFF803461846D8
:104330001037BD4680BD80B483B000AF786039606F
:1043400001223B6802FA03F31A467B6813431846BE
:104350000C37BD4680BC704780B582B000AF786036
:1043600039603B681846FEF736FD02467B681A60E6
:104370007B6818460837BD4680BD80B582B000AF67
:10438000786039803B7819467B781A46786800F067
:10439000F8F8034618460837BD4680BD80B483B0A0
:1043A00000AF7860396001223B6802FA03F31A46D5
:1043B0007B681340002B14BF01230023DBB2184697
:1043C0000C37BD4680BC704780B584B000AFF86044
:1043D000B960BA803B791A467B79B968F86800F011
:1043E000EDF8034618461037BD4680BD90B585B040
:1043F00000AF78603960786800F0D0FB04463B6815
:104400001846FEF7DFFB03461946204600F01AFC6B
:1044100003461A4607F10C0311461846FEF733FA15
:10442000FB6818461437BD4690BD90B585B000AF07
:10443000786039607B681846FEF7C4FB044638682C
:1044400000F0ACFB03461946204600F0AFFC0346E3
:104450001A4607F10C0311461846FEF714FAFB68DA
:1044600018461437BD4690BD80B584B000AFF860E3
:104470000B46BA80FB723B791A467B79F97AF86869
:1044800000F0C7F8034618461037BD4680BD80B41B
:1044900083B000AF03463960FB71FA793B6842FA9A
:1044A00003F303F00103002B14BF01230023DBB24D
:1044B00018460C37BD4680BC704780B586B000AF4B
:1044C0007860786800F0D1F8034618461837BD4682
:1044D00080BD80B489B000AFF8607A603B600B4665
:1044E0007B814FF0FF33FB612023BB613B68C3F14D
:1044F00020034FF0FF3222FA03F37B617A697B6875
:1045000002FA03F3DB43FA681340FB607A897B69A4
:104510001A407B6802FA03F3FA681343FB60FB68F6
:1045200018462437BD4680BC704780B489B000AFC0
:10453000F8607A603B600B46FB724FF0FF33FB6123
:104540002023BB613B68C3F120034FF0FF3222FA06
:1045500003F37B617A697B6802FA03F3DB43FA6851
:104560001340FB60FA7A7B691A407B6802FA03F316
:10457000FA681343FB60FB6818462437BD4680BCCD
:10458000704780B489B000AFF860B9607A604FF0CE
:10459000FF33FB612023BB617B68C3F120034FF035
:1045A000FF3222FA03F37B61FA68BB68DA407B6969
:1045B000134018462437BD4680BC704780B489B08C
:1045C00000AFF860B9607A603B604FF0FF33FB6189
:1045D0002023BB613B68C3F120034FF0FF3222FA76
:1045E00003F37B617A697B6802FA03F3DB43FA68C1
:1045F0001340FB60BA687B691A407B6802FA03F3D8
:10460000FA681343FB60FB6818462437BD4680BC3C
:10461000704780B489B000AFF8607A603B600B46A9
:10462000FB724FF0FF33FB612023BB613B68C3F19A
:1046300020034FF0FF3222FA03F37B617A697B6833
:1046400002FA03F3DB43FA681340FB60FA7A7B69F2
:104650001A407B6802FA03F3FA681343FB60FB68B5
:1046600018462437BD4680BC704780B485B000AF83
:10467000F86039723A713B70FB681B681846143752
:10468000BD4680BC7047FFFF80B582B000AF786048
:1046900039607B68012B40F0A6803B684FF6FF72C3
:1046A000934240F0A080524B1B6803F00103002BA3
:1046B00006D14F4B01221A604E4B1846FCF75CF8AE
:1046C0004D4B1B6803F00103002B05D14A4B01221F
:1046D0001A604A4A4A4B1A604A4B1B6803F00103AE
:1046E000002B06D1474B01221A60474B1A46474B15
:1046F0001A60474B1B6803F00103002B06D1444BA3
:1047000001221A60404B4033424A1360424B1B68FF
:1047100003F00103002B06D13F4B01221A603A4BF4
:1047200068333E4A13603E4B1B6803F00103002BC5
:1047300005D13B4B01221A60304A3A4B1A603A4B82
:104740001B6803F00103002B05D1374B01221A60CF
:104750002D4A364B1A60364B1B6803F00103002BC1
:1047600005D1334B01221A60324A334B1A60334B66
:104770001B6803F00103002B05D1304B01221A60A6
:104780002F4A304B1A60304B1B6803F00103002B9B
:1047900005D12D4B01221A602C4A2D4B1A602D4B4E
:1047A0001B6803F00103002B05D12A4B01221A607C
:1047B000294A2A4B1A602A4B1B6803F00103002B7D
:1047C00005D1274B01221A601A4A264B1A60264B44
:1047D0001B6803F00103002B05D1234B01221A6053
:1047E000174A224B1A6000BF0837BD4680BD00BF84
:1047F00058C2072058C1072000C3072000C00F403F
:10480000E8C2072004C3072000C00240ECC2072012
:1048100008C30720F0C207200CC30720F4C20720FA
:1048200010C30720F8C2072048C1072044C1072051
:1048300014C30720008009402CC0072018C307209C
:1048400000C0094040C007201CC3072000400A40A8
:1048500054C0072020C3072000C0004068C00720C4
:1048600024C307207CC0072028C3072090C007204E
:1048700080B500AF4FF6FF710120FFF705FF80BD47
:10488000074B19680868B0E8F00F80F30988BFF398
:104890006F8F4FF0000080F311884EF00D0E7047BF
:1048A0005CC2072000BF00BFFFFFFFFFFFFFFFFF4D
:1048B000EFF30980BFF36F8F0D4B1A6820E9F00FFB
:1048C00010602DE908404FF0280080F31188FCF7B4
:1048D000C7FC4FF0000080F31188BDE8084019685C
:1048E0000868B0E8F00F80F30988BFF36F8F704756
:1048F0005CC2072000BF00BF80B483B000AF786007
:104900003960012318460C37BD4680BC704780B41F
:1049100083B000AF78603960002318460C37BD467D
:1049200080BC704780B483B000AF7860034A7B6876
:10493000136000BF0C37BD4680BC70470CC0072019
:1049400080B483B000AF7860034A7B68136000BF17
:104950000C37BD4680BC704710C0072008B500F07A
:104960000DF808B5804701F08DFCFFFF024B186879
:10497000BFF35B8F704700BFC0C0072008B5FFF7CB
:10498000F5FFFFF7EEFFFFFF4FEA4102B2F1E04310
:1049900024BFB3F5001CDCF1FE5C0DD901F0004C26
:1049A0004FEAC0024CEA5070B2F1004F40EB830076
:1049B00008BF20F00100704711F0804F21D113F1A2
:1049C0003872BCBF01F00040704741F480114FEADB
:1049D0005252C2F11802C2F1200C10FA0CF320FA64
:1049E00002F018BF40F001004FEAC1234FEAD32381
:1049F00003FA0CFC40EA0C0023FA02F34FEA4303EB
:104A0000CCE77FEA625307D150EA01331EBF4FF073
:104A1000FE4040F44000704701F0004040F0FE408E
:104A200040F40000704700BF80F0004002E000BF8B
:104A300081F0004142001FBF5FEA410392EA030F89
:104A40007FEA226C7FEA236C6AD04FEA1262D2EBD3
:104A50001363C1BFD218414048404140B8BF5B42D8
:104A6000192B88BF704710F0004F40F4000020F071
:104A70007F4018BF404211F0004F41F4000121F087
:104A80007F4118BF494292EA030F3FD0A2F10102D1
:104A900041FA03FC10EB0C00C3F1200301FA03F10F
:104AA00000F0004302D5494260EB4000B0F5000F32
:104AB00013D3B0F1807F06D340084FEA310102F1F1
:104AC0000102FE2A51D2B1F1004F40EBC25008BFA3
:104AD00020F0010040EA03007047490040EB00006D
:104AE00010F4000FA2F10102EDD1B0FA80FCACF19C
:104AF000080CB2EB0C0200FA0CF0AABF00EBC2509B
:104B000052421843BCBFD0401843704792F0000F88
:104B100081F4000106BF80F400000132013BB5E7DB
:104B20004FEA41037FEA226C18BF7FEA236C21D051
:104B300092EA030F04D092F0000F08BF08467047B6
:104B400090EA010F1CBF0020704712F07F4F04D184
:104B5000400028BF40F00040704712F100723CBF97
:104B600000F50000704700F0004343F0FE4040F4C1
:104B7000000070477FEA226216BF08467FEA23637F
:104B80000146420206BF5FEA412390EA010F40F46A
:104B9000800070474FF0000304E000BF10F00043B6
:104BA00048BF40425FEA000C08BF704743F096439D
:104BB00001464FF000001CE050EA010208BF7047B8
:104BC0004FF000030AE000BF50EA010208BF70473F
:104BD00011F0004302D5404261EB41015FEA010C54
:104BE00002BF84460146002043F0B64308BFA3F14C
:104BF0008053A3F50003BCFA8CF2083AA3EBC2532E
:104C000010DB01FA02FC634400FA02FCC2F120024C
:104C1000BCF1004F20FA02F243EB020008BF20F083
:104C20000100704702F1200201FA02FCC2F12002E9
:104C300050EA4C0021FA02F243EB020008BF20EADE
:104C4000DC7070474FF0FF0C1CEAD0521EBF1CEA0C
:104C5000D15392EA0C0F93EA0C0F6FD01A4480EAFA
:104C6000010C400218BF5FEA41211ED04FF00063E3
:104C700043EA501043EA5111A0FB01310CF000400F
:104C8000B1F5000F3EBF490041EAD3715B0040EA35
:104C9000010062F17F02FD2A1DD8B3F1004F40EB05
:104CA000C25008BF20F00100704790F0000F0CF0D8
:104CB000004C08BF49024CEA502040EA51207F3A9C
:104CC000C2BFD2F1FF0340EAC250704740F4000077
:104CD0004FF00003013A5DDC12F1190FDCBF00F068
:104CE00000407047C2F10002410021FA02F1C2F116
:104CF000200200FA02FC5FEA310040F1000053EAB2
:104D00004C0308BF20EADC70704792F0000F00F0FF
:104D1000004C02BF400010F4000F013AF9D040EA05
:104D20000C0093F0000F01F0004C02BF490011F499
:104D3000000F013BF9D041EA0C018FE70CEAD15397
:104D400092EA0C0F18BF93EA0C0F0AD030F0004C17
:104D500018BF31F0004CD8D180EA010000F00040CB
:104D6000704790F0000F17BF90F0004F084691F089
:104D7000000F91F0004F14D092EA0C0F01D14202C3
:104D80000FD193EA0C0F03D14B0218BF084608D18C
:104D900080EA010000F0004040F0FE4040F40000D6
:104DA000704740F0FE4040F4400070474FF0FF0C69
:104DB0001CEAD0521EBF1CEAD15392EA0C0F93EAB0
:104DC0000C0F69D0A2EB030280EA010C49024FEA02
:104DD000402037D04FF0805343EA111143EA1013BB
:104DE0000CF000408B4238BF5B0042F17D024FF473
:104DF000000C8B4224BF5B1A40EA0C00B3EB510F4E
:104E000024BFA3EB510340EA5C00B3EB910F24BF36
:104E1000A3EB910340EA9C00B3EBD10F24BFA3EBBB
:104E2000D10340EADC001B0118BF5FEA1C1CE0D183
:104E3000FD2A3FF650AF8B4240EBC25008BF20F036
:104E4000010070470CF0004C4CEA50207F32C2BF8A
:104E5000D2F1FF0340EAC250704740F400004FF027
:104E60000003013A37E792F0000F00F0004C02BF58
:104E7000400010F4000F013AF9D040EA0C0093F022
:104E8000000F01F0004C02BF490011F4000F013B7C
:104E9000F9D041EA0C0195E70CEAD15392EA0C0FE4
:104EA00008D142027FF47DAF93EA0C0F7FF470AF1C
:104EB000084676E793EA0C0F04D14B023FF44CAF5F
:104EC00008466EE730F0004C18BF31F0004CCAD1F4
:104ED00030F000427FF45CAF31F000437FF43CAF30
:104EE0005FE700BF4FF0FF3C06E000BF4FF0010C52
:104EF00002E000BF4FF0010C4DF804CD4FEA400234
:104F00004FEA41037FEA226C18BF7FEA236C11D07D
:104F100001B052EA530C18BF90EA010F58BFB2EB30
:104F2000030088BFC81738BF6FEAE17018BF40F0B0
:104F3000010070477FEA226C02D15FEA402C05D164
:104F40007FEA236CE4D15FEA412CE1D05DF8040BE9
:104F5000704700BF844608466146FFE70FB5FFF77C
:104F6000C9FF002848BF10F1000F0FBD4DF808ED34
:104F7000FFF7F4FF0CBF012000205DF808FB00BF25
:104F80004DF808EDFFF7EAFF34BF012000205DF87F
:104F900008FB00BF4DF808EDFFF7E0FF94BF0120CC
:104FA00000205DF808FB00BF4DF808EDFFF7D2FFC9
:104FB00094BF012000205DF808FB00BF4DF808ED0C
:104FC000FFF7C8FF34BF012000205DF808FB00BFD9
:104FD0004FEA4002B2F1FE4F0FD34FF09E03B3EB06
:104FE00012620DD94FEA002343F0004310F0004F46
:104FF00023FA02F018BF404270474FF0000070479C
:1050000012F1610F01D1420205D110F0004008BF3A
:105010006FF0004070474FF00000704742000ED222
:10502000B2F1FE4F0BD34FF09E03B3EB126209D4E3
:105030004FEA002343F0004323FA02F070474FF099
:105040000000704712F1610F01D1420202D14FF00E
:10505000FF3070474FF00000704700BF53B94AB9A6
:10506000002908BF00281CBF4FF0FF314FF0FF3070
:1050700001F006B9ADF1080C6DE904CE00F006F8B8
:10508000DDF804E0DDE9022304B070472DE9F047C4
:105090008C460446089E002B4BD18A42154667D9A0
:1050A000B2FA82F24AB1C2F1200701FA02F320FA01
:1050B00007F7954047EA030C94404FEA154EBCFBB6
:1050C000FEF71FFA85F80EFB17C307FB08F9210C42
:1050D00041EA0343994509D9EB1807F1FF3180F004
:1050E0001C81994540F21981023F2B44A3EB09032F
:1050F000B3FBFEF00EFB103300FB08F1A4B244EA50
:105100000344A14209D92C1900F1FF3380F0078133
:10511000A14240F2048102382C4440EA07400027B3
:10512000641A1EB10023D440C6E900433946BDE8E5
:10513000F0878B4209D9002E00F0EC800027C6E9E9
:10514000000138463946BDE8F087B3FA83F7002FEF
:1051500048D18B4202D3824200F2FB80841A61EB79
:10516000030301209C46002EE0D0C6E9004CDDE799
:1051700002B9FFDEB2FA82F2002A40F08F800127E6
:10518000491B4FEA15481FFA85F9B1FBF8FE08FBE9
:105190001E1109FB0EF04FEA144C4CEA01439842F1
:1051A00007D9EB180EF1FF3102D2984200F2CD8000
:1051B0008E461B1AB3FBF8F008FB103309FB00F90D
:1051C000A4B244EA0344A14507D92C1900F1FF33E6
:1051D00002D2A14500F2B6801846A4EB090440EAC9
:1051E0000E409EE7C7F12005BB4022FA05FC4CEAC1
:1051F000030C21FA05F44FEA1C4EB4FBFEF91FFA2A
:105200008CF80EFB194420FA05F3B94009FB08FAA3
:1052100019430B0C43EA0444A24502FA07F200FAD0
:1052200007F30BD91CEB040409F1FF3080F08880F0
:10523000A24540F28580A9F102096444A4EB0A0466
:10524000B4FBFEF00EFB104400FB08FA89B241EA01
:105250000444A24508D91CEB040400F1FF316BD2D1
:10526000A24569D90238644440EA0940A0FB02899A
:10527000A4EB0A044C454146CE4654D351D0002EEF
:1052800069D05A1A64EB0E0404FA05F522FA07F302
:10529000FC401D43C6E90054002747E79540C2F192
:1052A000200321FA03F04FEA1548B0FBF8F71FFA84
:1052B00085F908FB170024FA03F3914007FB09FC6A
:1052C0000B43190C41EA00418C4504FA02F407D95A
:1052D000691807F1FF3031D28C452FD9023F29449C
:1052E000A1EB0C01B1FBF8F008FB101C00FB09FE60
:1052F00099B241EA0C418E4507D9691800F1FF3394
:1053000018D28E4516D902382944A1EB0E0140EA85
:1053100007473AE73746304608E70F46E6E61846BD
:10532000FBE64345ABD2B8EB020169EB0C02013856
:105330009646A4E71846E8E7084695E70746CFE70C
:1053400081467BE702382C4447E7AEF1020E2B443E
:105350002FE7384607E73746E8E600BF03685A00FC
:105360004CBF43F0004323F000431844704700BF94
:1053700061B32DE9F84F01F1FF3A90460646D14658
:10538000002707EB090404EBD4746410E5007119DD
:105390000846FFF7E3FFA245834605F108003044C5
:1053A00009D0FFF7DBFFC34500F1FF3005D84045CA
:1053B00009D2671CE5E7C34505D9A74202D004F12D
:1053C000FF39DEE700210846BDE8F88F0846704740
:1053D000012807D0022807D0044B00280CBF18462C
:1053E000002070470248704702487047CD5A0000BD
:1053F000D15A0000D55A000030B5264B83B0044680
:105400008D1E4BB301A92846AFF30080F0B101997E
:105410002A46FFF7ADFF0146C0B1FFF79FFF4B687B
:10542000A064012B2FD0002B01F1040027DBFFF734
:1054300095FF0023C4E913030368002B13DBFFF778
:105440008DFF00232061184603B030BD09230022E0
:105450001846226103B030BD0F4B10491846C91AD7
:10546000C9100191D4E7C3F30360FFF7B1FF00282F
:1054700014BF002309232061184603B030BD012367
:10548000C4E91303D8E7052300221846226103B0BC
:1054900030BD00BF00000000F4810000AC820000BD
:1054A000036810B5DA07044606D49B0700F14800EC
:1054B00009D500F067FC2368590709D51A070ED5EE
:1054C000DB0613D510BD00F055FC23685907F5D451
:1054D00004F1D00000F05EFC23681A07F0D404F554
:1054E000A87000F05FFC2368DB06EBD404F5E870DD
:1054F000BDE8104000F09ABC036803B103441846AD
:10550000704700BF09207047704700BF70B5044660
:105510000D4608E02A6C2369626121462A46012073
:105520009847082808D1296C2046FFF765FF0646F2
:105530000028EFD000F0A6FE0728FBD13046296CEA
:10554000FFF7E2FF281D00F009FC00BF2DE9F0473E
:1055500005464FF0000CADF5727D03AC0E1D1746ED
:105560000FCE0FC40FCE0FC40FCE0FC496E80F009E
:10557000D5F80C80D5F8189084E80F0002ACC4F878
:1055800000C021E0236C4FF4F0726B6121467AA8D1
:1055900001F030F82B697AAA294630469847889B53
:1055A000CDE900498246636431462B462A460120F4
:1055B000C0470746F8B94FF4F0727AA9204601F0C7
:1055C00019F8BAF1080F1CD1216C2846FFF714FF17
:1055D000002F08BF0926074618BF0A260028D1D089
:1055E000A36B46F01001CDE900492A46636401200F
:1055F0002B46C04700B1092738460DF5727DBDE83E
:10560000F087BAF1070FF6D13846216CFFF77CFF1F
:1056100003A800F0A3FB00BF406C70474FF0FF3CB5
:10562000F0B5CB6BF9B00B640D1D01AC0F4606460F
:105630000FCD0FC40FCD0FC40FCD0FC495E80F00D1
:1056400084E80F00CDF800C006E033696A463146B1
:1056500098470828044608D110993046FFF7CCFE39
:105660000028F2D0092079B0F0BD6846FFF718FF96
:10567000062CF7D139463046FFF748FF30B4DD6BD2
:10568000C160826119461D64002230BC5EE700BF24
:1056900070B54369C6680B64BEB903690A4604461F
:1056A0000D46014602209847072807D0082803D155
:1056B00029462046FFF72AFF00F0E4FD3046296C1A
:1056C000FFF722FF281D00F049FB0122FFF73EFFF4
:1056D00000F0D8FDC2682AB110B4CC6B00220C6473
:1056E00010BC33E79AE700BF704700BF836813B16F
:1056F0000146012018477047042907D8DFE801F068
:105700000308060808000BB90F2A03D902207047C6
:105710000120704700EB820042681846009B1A6027
:10572000704700BF002310B584B003AC0A46009454
:105730001946FFF7E1FF039804B010BD042907D80C
:10574000DFE801F00308060808000BB90F2A03D9A7
:105750000220704701207047009900EB820209681F
:1057600018465160704700BF002310B584B004ACE8
:1057700044F8042D00940A461946FFF7DFFF04B0F1
:1057800010BD00BF4FF0FF3CF0B5D36BADF50F7D02
:105790001364151D17AC07460E460FCD0FC40FCD71
:1057A0000FC40FCD0FC495E80F0084E80F00CDF8AB
:1057B00058C012E00C2116A86A46FFF7D5FF314603
:1057C00016A8B84778B9049B16AA694608209847D6
:1057D0000528044608D0092805D026996846FFF711
:1057E0000BFE0028E6D0092416A8FFF759FE204634
:1057F0000DF50F7DF0BD00BF2DE9F04F0D46C96CD2
:1058000089B00C1D164600F0030B0A681F4606946B
:10581000002B68D00221130C8DF81D301204DBB26E
:1058200004EB830405928DF81C102B6DBBF1020F65
:1058300008BFAC6B13F0010346D1019300F00803DD
:105840000093D4F80090B9F1000F00F0F380022F1C
:1058500045D0B4F80090B4F802800434AB6C28F062
:10586000010A0F2130469A44FFF75CFF824534D885
:1058700029F001035344834294BF002001204FEAE2
:10588000480808F0020809F0010948EA0908B8F1D7
:10589000010F3AD031D3B8F1020F1AD1236823F0A7
:1058A000004ABBF1000F66D130B1009A002A6CD0DB
:1058B000BAF1000F00F09080002B00DA04340AF1F6
:1058C000010304EB8304BCE7304605A900F048FB64
:1058D00078B1092009B0BDE8F08F0020CFE7D4F8F7
:1058E00004800834BAE7032312020592ADF81C3095
:1058F0009BE7082009B0BDE8F08FBBF1000F02D094
:10590000002840F0B48004349BE7BBF1000F18D1AD
:10591000A8B1D4E90023991C4FEAD272D9D005F17D
:1059200058010133049100F0B580201DFFF7E4FD1C
:1059300004AB01462846AFF30080002867D1083445
:105940007FE70D213046D5F82080FFF7EBFE80453C
:10595000F5D1AB6A9C42F2D12046FFF7FFFC0F2144
:1059600002463046FFF700FF30462A460021FFF787
:10597000FBFE0720AEE70D213046D5F82080FFF76B
:10598000D1FE804532D0236896E7BAF1000F23D0CC
:1059900005F1580304F10408CDF808B0DDF80090D3
:1059A000A34603971C4602E05745B94640D04046FF
:1059B0000494FFF7A1FD04AB014600222846AFF393
:1059C000008009F1010708F104080028ECD0D14556
:1059D0005C46DDE902B7D6D130460D21FFF7A2FEC5
:1059E000049B2862C5E90934062073E7AB6A9C4230
:1059F000C9D104224FF00008A318C5E90AA8C5E9D7
:105A00000C23236843454DDB0123019357E7804670
:105A10000D213046FFF786FEB8F1020F28623ED115
:105A20002B46049A43F82C2F6B62AC62062051E798
:105A30005C46D1E705A9304600F092FA00287FF4D1
:105A400048AF019B002B3FF454AF0F213046FFF7C6
:105A500069FE0E2102463046FFF786FE30461A4A9E
:105A60000F21FFF781FE072009B0BDE8F08F204627
:105A7000FFF774FC04340746AC632846AFF300809C
:105A800000283FF426AF30463A460F21FFF76CFE60
:105A900007201FE730460D21FFF744FE2862049BD4
:105AA0006B62C2E70AF1010004EB8000FFF756FCCD
:105AB0000F2102463046FFF757FE30462A46414640
:105AC000FFF752FE072005E700000000002393E6E1
:105AD000012391E602238FE62DE9F0410546C4B08B
